{
  "contractName": "MainContract",
  "abi": [
    {
      "constant": true,
      "inputs": [
        {
          "name": "",
          "type": "uint256"
        }
      ],
      "name": "dataStorage",
      "outputs": [
        {
          "name": "startTimpestamp",
          "type": "uint256"
        },
        {
          "name": "endTimpestamp",
          "type": "uint256"
        },
        {
          "name": "timeframe",
          "type": "uint256"
        },
        {
          "name": "dataHash",
          "type": "bytes32"
        }
      ],
      "payable": false,
      "stateMutability": "view",
      "type": "function"
    },
    {
      "constant": false,
      "inputs": [
        {
          "name": "_startTimpestamp",
          "type": "uint256"
        },
        {
          "name": "_endTimpestamp",
          "type": "uint256"
        },
        {
          "name": "_timeframe",
          "type": "uint256"
        },
        {
          "name": "_dataHash",
          "type": "bytes32"
        }
      ],
      "name": "addData",
      "outputs": [],
      "payable": false,
      "stateMutability": "nonpayable",
      "type": "function"
    },
    {
      "constant": true,
      "inputs": [
        {
          "name": "_hashData",
          "type": "bytes32"
        }
      ],
      "name": "getData",
      "outputs": [
        {
          "name": "startTimpestamp",
          "type": "uint256"
        },
        {
          "name": "endTimpestamp",
          "type": "uint256"
        },
        {
          "name": "timeframe",
          "type": "uint256"
        }
      ],
      "payable": false,
      "stateMutability": "view",
      "type": "function"
    }
  ],
  "bytecode": "0x6060604052341561000f57600080fd5b6102f18061001e6000396000f3006060604052600436106100565763ffffffff7c0100000000000000000000000000000000000000000000000000000000600035041663382b6d5e811461005b57806354f6127f1461007c578063ea78c648146100b6575b600080fd5b341561006657600080fd5b61007a6004356024356044356064356100f8565b005b341561008757600080fd5b61009260043561017a565b60405180848152602001838152602001828152602001935050505060405180910390f35b34156100c157600080fd5b6100cc600435610200565b604051938452602084019290925260408084019190915260608301919091526080909101905180910390f35b60008054828252600160208190526040832082905581016101198382610238565b9160005260206000209060040201600060806040519081016040908152888252602082018890528101869052606081018590529190508151815560208201518160010155604082015181600201556060820151600390910155505050505050565b600080600080610188610269565b6000868152600160205260408120548154909350839081106101a657fe5b90600052602060002090600402016080604051908101604090815282548252600183015460208301526002830154908201526003909101546060820152905080518160200151826040015194509450945050509193909250565b600080548290811061020e57fe5b60009182526020909120600490910201805460018201546002830154600390930154919350919084565b815481835581811511610264576004028160040283600052602060002091820191016102649190610290565b505050565b60806040519081016040908152600080835260208301819052908201819052606082015290565b6102c291905b808211156102be57600080825560018201819055600282018190556003820155600401610296565b5090565b905600a165627a7a7230582098cfa15b9fd5c8beba9f45180d4fcad09640fa55b5745e2e428419259360ca580029",
  "source": "pragma solidity ^0.4.21;\n\ncontract MainContract {\n    \n    struct Data {\n        uint256 startTimpestamp;\n        uint256 endTimpestamp;\n        uint256 timeframe;\n        bytes32 dataHash;\n    }\n\n    Data[] public dataStorage;\n\n    mapping(bytes32 => uint256) arrayPositions;\n\n    function addData(uint256 _startTimpestamp, uint256 _endTimpestamp, uint256 _timeframe, bytes32 _dataHash) public {\n        arrayPositions[_dataHash] = dataStorage.length;\n        dataStorage.push(Data(_startTimpestamp, _endTimpestamp, _timeframe, _dataHash));\n    }\n\n    function getData(bytes32 _hashData) public view returns (uint256 startTimpestamp, uint256 endTimpestamp, uint256 timeframe) {\n        uint256 position = arrayPositions[_hashData];\n        Data memory data = dataStorage[position];\n\n        return (data.startTimpestamp, data.endTimpestamp, data.timeframe);\n    }\n}",
  "sourcePath": "/Users/ivan/Code/work/dekachain/iotcamp/hackathon1/contracts/MainContract.sol",
  "compiler": {
    "name": "solc",
    "version": "0.4.21+commit.dfe3193c.Emscripten.clang"
  },
  "schemaVersion": "2.0.0",
  "updatedAt": "2018-04-14T14:55:22.523Z"
}