{
  "contractName": "Homnergy",
  "abi": [
    {
      "constant": true,
      "inputs": [
        {
          "name": "",
          "type": "address"
        }
      ],
      "name": "joined",
      "outputs": [
        {
          "name": "",
          "type": "bool"
        }
      ],
      "payable": false,
      "stateMutability": "view",
      "type": "function"
    },
    {
      "inputs": [
        {
          "name": "_homnergyTokenAddress",
          "type": "address"
        }
      ],
      "payable": false,
      "stateMutability": "nonpayable",
      "type": "constructor"
    },
    {
      "constant": false,
      "inputs": [
        {
          "name": "_temperature",
          "type": "uint256"
        }
      ],
      "name": "publishTemperature",
      "outputs": [],
      "payable": false,
      "stateMutability": "nonpayable",
      "type": "function"
    },
    {
      "constant": false,
      "inputs": [],
      "name": "generateRewards",
      "outputs": [],
      "payable": false,
      "stateMutability": "nonpayable",
      "type": "function"
    }
  ],
  "bytecode": "0x606060405260006001556000600355341561001957600080fd5b6040516020806104828339810160405280805160008054600160a060020a03909216600160a060020a031990921691909117905550506104248061005e6000396000f30060606040526004361061003d5763ffffffff60e060020a6000350416632c92eacd81146100425780638e956ee41461005a578063f887d0191461006d575b600080fd5b341561004d57600080fd5b6100586004356100a0565b005b341561006557600080fd5b610058610240565b341561007857600080fd5b61008c600160a060020a0360043516610399565b604051901515815260200160405180910390f35b600160a060020a03331660009081526005602052604090205460ff1680151561014e57600054600160a060020a03166328ffe6c83360405160e060020a63ffffffff8416028152600160a060020a039091166004820152602401602060405180830381600087803b151561011357600080fd5b5af1151561012057600080fd5b50505060405180515050600160a060020a0333166000908152600560205260409020805460ff191660011790555b60158210156101cc57600454600354141561017757600480546001019061017590826103ae565b505b600380546001810190915560048054339290811061019157fe5b6000918252602090912001805473ffffffffffffffffffffffffffffffffffffffff1916600160a060020a039290921691909117905561023c565b60025460015414156101ec5760028054600101906101ea90826103ae565b505b6001805480820190915560028054339290811061020557fe5b6000918252602090912001805473ffffffffffffffffffffffffffffffffffffffff1916600160a060020a03929092169190911790555b5050565b6000805b6003548210156102e75760005460048054600160a060020a0390921691636353586b91908590811061027257fe5b600091825260209091200154600160a060020a031660405160e060020a63ffffffff8416028152600160a060020a039091166004820152602401602060405180830381600087803b15156102c557600080fd5b5af115156102d257600080fd5b50505060405180515050600190910190610244565b50600060038190555b6001548110156103905760005460028054600160a060020a03909216916378d97c9491908490811061031e57fe5b600091825260209091200154600160a060020a031660405160e060020a63ffffffff8416028152600160a060020a039091166004820152602401602060405180830381600087803b151561037157600080fd5b5af1151561037e57600080fd5b505050604051805150506001016102f0565b50506000600155565b60056020526000908152604090205460ff1681565b8154818355818115116103d2576000838152602090206103d29181019083016103d7565b505050565b6103f591905b808211156103f157600081556001016103dd565b5090565b905600a165627a7a72305820ee83aff00d1546af3008e25f21f9da8f947cf7be035cbbd00390f552b89f79710029",
  "source": "pragma solidity ^0.4.21;\n\nimport \"./token/HomnergyToken.sol\";\n\ncontract Homnergy {\n    \n    HomnergyToken homnergyToken;\n\n    uint256 numElementsPenalize = 0;\n    address[] addressesToPenalize;\n\n    uint256 numElementsReward = 0;\n    address[] addressesToReward;\n\n    mapping(address=>bool) public joined;\n\n    function Homnergy(address _homnergyTokenAddress) public {\n        homnergyToken = HomnergyToken(_homnergyTokenAddress);\n    }\n\n    /**\n    * @dev Publish a temperature, if it is \n    * @param _temperature of the house\n    */\n    function publishTemperature(uint256 _temperature) public {\n        bool userJoined = joined[msg.sender];\n        if (!userJoined) {\n            homnergyToken.join(msg.sender);\n            joined[msg.sender] = true;\n        }\n\n        if (_temperature < 21) {\n            if(numElementsReward == addressesToReward.length) {\n                addressesToReward.length += 1;\n            }\n            addressesToReward[numElementsReward++] = msg.sender;\n        } else {\n            if(numElementsPenalize == addressesToPenalize.length) {\n                addressesToPenalize.length += 1;\n            }\n            addressesToPenalize[numElementsPenalize++] = msg.sender;\n        }\n    }\n\n    /**\n    * @dev Generate the rewards\n    */\n    function generateRewards() public {\n        for (uint256 i = 0; i < numElementsReward; i++) {\n            homnergyToken.reward(addressesToReward[i]);\n        }\n        numElementsReward = 0;\n\n        for (uint256 j = 0; j < numElementsPenalize; j++) {\n            homnergyToken.penalize(addressesToPenalize[j]);\n        }\n        numElementsPenalize = 0;\n    }\n}",
  "sourcePath": "/Users/ivan/Code/work/dekachain/iotcamp/hackathon/contracts/Homnergy.sol",
  "compiler": {
    "name": "solc",
    "version": "0.4.21+commit.dfe3193c.Emscripten.clang"
  },
  "schemaVersion": "2.0.0",
  "updatedAt": "2018-04-14T12:38:21.167Z"
}