{
  "contractName": "HomnergyToken",
  "abi": [
    {
      "constant": true,
      "inputs": [],
      "name": "name",
      "outputs": [
        {
          "name": "",
          "type": "string"
        }
      ],
      "payable": false,
      "stateMutability": "view",
      "type": "function"
    },
    {
      "constant": false,
      "inputs": [
        {
          "name": "_spender",
          "type": "address"
        },
        {
          "name": "_value",
          "type": "uint256"
        }
      ],
      "name": "approve",
      "outputs": [
        {
          "name": "",
          "type": "bool"
        }
      ],
      "payable": false,
      "stateMutability": "nonpayable",
      "type": "function"
    },
    {
      "constant": true,
      "inputs": [],
      "name": "totalSupply",
      "outputs": [
        {
          "name": "",
          "type": "uint256"
        }
      ],
      "payable": false,
      "stateMutability": "view",
      "type": "function"
    },
    {
      "constant": false,
      "inputs": [
        {
          "name": "_from",
          "type": "address"
        },
        {
          "name": "_to",
          "type": "address"
        },
        {
          "name": "_value",
          "type": "uint256"
        }
      ],
      "name": "transferFrom",
      "outputs": [
        {
          "name": "",
          "type": "bool"
        }
      ],
      "payable": false,
      "stateMutability": "nonpayable",
      "type": "function"
    },
    {
      "constant": true,
      "inputs": [],
      "name": "decimals",
      "outputs": [
        {
          "name": "",
          "type": "uint8"
        }
      ],
      "payable": false,
      "stateMutability": "view",
      "type": "function"
    },
    {
      "constant": false,
      "inputs": [
        {
          "name": "_spender",
          "type": "address"
        },
        {
          "name": "_subtractedValue",
          "type": "uint256"
        }
      ],
      "name": "decreaseApproval",
      "outputs": [
        {
          "name": "",
          "type": "bool"
        }
      ],
      "payable": false,
      "stateMutability": "nonpayable",
      "type": "function"
    },
    {
      "constant": true,
      "inputs": [
        {
          "name": "_owner",
          "type": "address"
        }
      ],
      "name": "balanceOf",
      "outputs": [
        {
          "name": "balance",
          "type": "uint256"
        }
      ],
      "payable": false,
      "stateMutability": "view",
      "type": "function"
    },
    {
      "constant": true,
      "inputs": [],
      "name": "owner",
      "outputs": [
        {
          "name": "",
          "type": "address"
        }
      ],
      "payable": false,
      "stateMutability": "view",
      "type": "function"
    },
    {
      "constant": true,
      "inputs": [],
      "name": "symbol",
      "outputs": [
        {
          "name": "",
          "type": "string"
        }
      ],
      "payable": false,
      "stateMutability": "view",
      "type": "function"
    },
    {
      "constant": false,
      "inputs": [
        {
          "name": "_to",
          "type": "address"
        },
        {
          "name": "_value",
          "type": "uint256"
        }
      ],
      "name": "transfer",
      "outputs": [
        {
          "name": "",
          "type": "bool"
        }
      ],
      "payable": false,
      "stateMutability": "nonpayable",
      "type": "function"
    },
    {
      "constant": false,
      "inputs": [
        {
          "name": "_spender",
          "type": "address"
        },
        {
          "name": "_addedValue",
          "type": "uint256"
        }
      ],
      "name": "increaseApproval",
      "outputs": [
        {
          "name": "",
          "type": "bool"
        }
      ],
      "payable": false,
      "stateMutability": "nonpayable",
      "type": "function"
    },
    {
      "constant": true,
      "inputs": [
        {
          "name": "_owner",
          "type": "address"
        },
        {
          "name": "_spender",
          "type": "address"
        }
      ],
      "name": "allowance",
      "outputs": [
        {
          "name": "",
          "type": "uint256"
        }
      ],
      "payable": false,
      "stateMutability": "view",
      "type": "function"
    },
    {
      "inputs": [],
      "payable": false,
      "stateMutability": "nonpayable",
      "type": "constructor"
    },
    {
      "anonymous": false,
      "inputs": [
        {
          "indexed": true,
          "name": "from",
          "type": "address"
        },
        {
          "indexed": true,
          "name": "to",
          "type": "address"
        },
        {
          "indexed": false,
          "name": "tokens",
          "type": "uint256"
        }
      ],
      "name": "Transfer",
      "type": "event"
    },
    {
      "anonymous": false,
      "inputs": [
        {
          "indexed": true,
          "name": "tokenOwner",
          "type": "address"
        },
        {
          "indexed": true,
          "name": "spender",
          "type": "address"
        },
        {
          "indexed": false,
          "name": "tokens",
          "type": "uint256"
        }
      ],
      "name": "Approval",
      "type": "event"
    },
    {
      "constant": false,
      "inputs": [
        {
          "name": "_newOwner",
          "type": "address"
        }
      ],
      "name": "setNewOwner",
      "outputs": [],
      "payable": false,
      "stateMutability": "nonpayable",
      "type": "function"
    },
    {
      "constant": false,
      "inputs": [
        {
          "name": "_to",
          "type": "address"
        }
      ],
      "name": "join",
      "outputs": [
        {
          "name": "success",
          "type": "bool"
        }
      ],
      "payable": false,
      "stateMutability": "nonpayable",
      "type": "function"
    },
    {
      "constant": false,
      "inputs": [
        {
          "name": "_to",
          "type": "address"
        }
      ],
      "name": "reward",
      "outputs": [
        {
          "name": "success",
          "type": "bool"
        }
      ],
      "payable": false,
      "stateMutability": "nonpayable",
      "type": "function"
    },
    {
      "constant": false,
      "inputs": [
        {
          "name": "_to",
          "type": "address"
        }
      ],
      "name": "penalize",
      "outputs": [
        {
          "name": "success",
          "type": "bool"
        }
      ],
      "payable": false,
      "stateMutability": "nonpayable",
      "type": "function"
    }
  ],
  "bytecode": "0x606060405260408051908101604052600881527f486f6d6e657267790000000000000000000000000000000000000000000000006020820152600390805161004b9291602001906100d1565b5060408051908101604052600381527f484e590000000000000000000000000000000000000000000000000000000000602082015260049080516100939291602001906100d1565b506005805460ff1916601217905534156100ac57600080fd5b6005805461010060a860020a03191661010033600160a060020a03160217905561016c565b828054600181600116156101000203166002900490600052602060002090601f016020900481019282601f1061011257805160ff191683800117855561013f565b8280016001018555821561013f579182015b8281111561013f578251825591602001919060010190610124565b5061014b92915061014f565b5090565b61016991905b8082111561014b5760008155600101610155565b90565b610b078061017b6000396000f3006060604052600436106100e55763ffffffff7c010000000000000000000000000000000000000000000000000000000060003504166306fdde0381146100ea578063095ea7b31461017457806318160ddd146101aa57806323b872dd146101cf57806328ffe6c8146101f7578063313ce567146102165780636353586b146101f7578063661884631461023f57806370a082311461026157806378d97c94146102805780638da5cb5b1461029f57806395d89b41146102ce578063a9059cbb146102e1578063d73dd62314610303578063dd62ed3e14610325578063f5a1f5b41461034a575b600080fd5b34156100f557600080fd5b6100fd61036b565b60405160208082528190810183818151815260200191508051906020019080838360005b83811015610139578082015183820152602001610121565b50505050905090810190601f1680156101665780820380516001836020036101000a031916815260200191505b509250505060405180910390f35b341561017f57600080fd5b610196600160a060020a0360043516602435610409565b604051901515815260200160405180910390f35b34156101b557600080fd5b6101bd610475565b60405190815260200160405180910390f35b34156101da57600080fd5b610196600160a060020a036004358116906024351660443561047b565b341561020257600080fd5b610196600160a060020a03600435166105fb565b341561022157600080fd5b610229610669565b60405160ff909116815260200160405180910390f35b341561024a57600080fd5b610196600160a060020a0360043516602435610672565b341561026c57600080fd5b6101bd600160a060020a036004351661076c565b341561028b57600080fd5b610196600160a060020a0360043516610787565b34156102aa57600080fd5b6102b26107fe565b604051600160a060020a03909116815260200160405180910390f35b34156102d957600080fd5b6100fd610812565b34156102ec57600080fd5b610196600160a060020a036004351660243561087d565b341561030e57600080fd5b610196600160a060020a036004351660243561098f565b341561033057600080fd5b6101bd600160a060020a0360043581169060243516610a33565b341561035557600080fd5b610369600160a060020a0360043516610a5e565b005b60038054600181600116156101000203166002900480601f0160208091040260200160405190810160405280929190818152602001828054600181600116156101000203166002900480156104015780601f106103d657610100808354040283529160200191610401565b820191906000526020600020905b8154815290600101906020018083116103e457829003601f168201915b505050505081565b600160a060020a03338116600081815260016020908152604080832094871680845294909152808220859055909291907f8c5be1e5ebec7d5bd14f71427d1e84f3dd0314c0f7b2291e5b200ac8c7c3b9259085905190815260200160405180910390a350600192915050565b60025490565b6000600160a060020a038316151561049257600080fd5b600160a060020a0384166000908152602081905260409020548211156104b757600080fd5b600160a060020a03808516600090815260016020908152604080832033909416835292905220548211156104ea57600080fd5b600160a060020a038416600090815260208190526040902054610513908363ffffffff610ab316565b600160a060020a038086166000908152602081905260408082209390935590851681522054610548908363ffffffff610ac516565b600160a060020a038085166000908152602081815260408083209490945587831682526001815283822033909316825291909152205461058e908363ffffffff610ab316565b600160a060020a03808616600081815260016020908152604080832033861684529091529081902093909355908516917fddf252ad1be2c89b69c2b068fc378daa952ba7f163c4a11628f55a4df523b3ef9085905190815260200160405180910390a35060019392505050565b60055460009033600160a060020a03908116610100909204161461061e57600080fd5b600160a060020a03821660009081526020819052604090205461064890606463ffffffff610ac516565b600160a060020a038316600090815260208190526040902055506001919050565b60055460ff1681565b600160a060020a033381166000908152600160209081526040808320938616835292905290812054808311156106cf57600160a060020a033381166000908152600160209081526040808320938816835292905290812055610706565b6106df818463ffffffff610ab316565b600160a060020a033381166000908152600160209081526040808320938916835292905220555b600160a060020a0333811660008181526001602090815260408083209489168084529490915290819020547f8c5be1e5ebec7d5bd14f71427d1e84f3dd0314c0f7b2291e5b200ac8c7c3b925915190815260200160405180910390a35060019392505050565b600160a060020a031660009081526020819052604090205490565b60055460009033600160a060020a0390811661010090920416146107aa57600080fd5b600160a060020a03821660009081526020819052604090205460649011156107f657600160a060020a03821660009081526020819052604090205461064890606463ffffffff610ab316565b506001919050565b6005546101009004600160a060020a031681565b60048054600181600116156101000203166002900480601f0160208091040260200160405190810160405280929190818152602001828054600181600116156101000203166002900480156104015780601f106103d657610100808354040283529160200191610401565b6000600160a060020a038316151561089457600080fd5b600160a060020a0333166000908152602081905260409020548211156108b957600080fd5b600160a060020a0333166000908152602081905260409020546108e2908363ffffffff610ab316565b600160a060020a033381166000908152602081905260408082209390935590851681522054610917908363ffffffff610ac516565b60008085600160a060020a0316600160a060020a031681526020019081526020016000208190555082600160a060020a031633600160a060020a03167fddf252ad1be2c89b69c2b068fc378daa952ba7f163c4a11628f55a4df523b3ef8460405190815260200160405180910390a350600192915050565b600160a060020a0333811660009081526001602090815260408083209386168352929052908120546109c7908363ffffffff610ac516565b600160a060020a0333811660008181526001602090815260408083209489168084529490915290819020849055919290917f8c5be1e5ebec7d5bd14f71427d1e84f3dd0314c0f7b2291e5b200ac8c7c3b92591905190815260200160405180910390a350600192915050565b600160a060020a03918216600090815260016020908152604080832093909416825291909152205490565b60055433600160a060020a039081166101009092041614610a7e57600080fd5b60058054600160a060020a039092166101000274ffffffffffffffffffffffffffffffffffffffff0019909216919091179055565b600082821115610abf57fe5b50900390565b600082820183811015610ad457fe5b93925050505600a165627a7a723058202a15adbfe57556c00d3363c96684f8f588db099c24984e8466ddb6a580b460160029",
  "source": "pragma solidity ^0.4.21;\n\nimport \"./StandardToken.sol\";\n\ncontract HomnergyToken is StandardToken {\n    string public name = \"Homnergy\";\n    string public symbol = \"HNY\";\n    uint8 public decimals = 18;\n\n    address public owner;\n\n    modifier onlyOwner() {\n        require(msg.sender == owner);\n        _;\n    }\n\n    function HomnergyToken() public {\n        owner = msg.sender;\n    }\n\n    function setNewOwner(address _newOwner) onlyOwner public {\n        owner = _newOwner;\n    }\n\n    function join(address _to) onlyOwner public returns (bool success) {\n        balances[_to] = balances[_to].add(100);\n        return true;\n    }\n\n    function reward(address _to) onlyOwner public returns (bool success) {\n        balances[_to] = balances[_to].add(100);\n        return true;\n    }\n\n    function penalize(address _to) onlyOwner public returns (bool success) {\n        if (balances[_to] > 100) {\n            balances[_to] = balances[_to].sub(100);\n        }\n        return true;\n    }\n}",
  "sourcePath": "/Users/ivan/Code/work/dekachain/iotcamp/hackathon/contracts/token/HomnergyToken.sol",
  "compiler": {
    "name": "solc",
    "version": "0.4.21+commit.dfe3193c.Emscripten.clang"
  },
  "schemaVersion": "2.0.0",
  "updatedAt": "2018-04-14T12:38:21.173Z"
}